{
  "contractName": "lottery",
  "abi": [
    {
      "constant": true,
      "inputs": [
        {
          "name": "",
          "type": "uint256"
        }
      ],
      "name": "randomval",
      "outputs": [
        {
          "name": "",
          "type": "uint256"
        }
      ],
      "payable": false,
      "stateMutability": "view",
      "type": "function",
      "signature": "0x4ddca457"
    },
    {
      "constant": true,
      "inputs": [
        {
          "name": "",
          "type": "uint256"
        }
      ],
      "name": "finalresult",
      "outputs": [
        {
          "name": "",
          "type": "uint256"
        }
      ],
      "payable": false,
      "stateMutability": "view",
      "type": "function",
      "signature": "0x5ec2311e"
    },
    {
      "constant": true,
      "inputs": [],
      "name": "prizeCount",
      "outputs": [
        {
          "name": "",
          "type": "uint256"
        }
      ],
      "payable": false,
      "stateMutability": "view",
      "type": "function",
      "signature": "0x7f23df0a"
    },
    {
      "constant": true,
      "inputs": [
        {
          "name": "",
          "type": "address"
        }
      ],
      "name": "drawers",
      "outputs": [
        {
          "name": "",
          "type": "bool"
        }
      ],
      "payable": false,
      "stateMutability": "view",
      "type": "function",
      "signature": "0x9a287c2c"
    },
    {
      "constant": true,
      "inputs": [
        {
          "name": "",
          "type": "uint256"
        }
      ],
      "name": "prizes",
      "outputs": [
        {
          "name": "id",
          "type": "uint256"
        },
        {
          "name": "name",
          "type": "string"
        },
        {
          "name": "drawCount",
          "type": "uint256"
        },
        {
          "name": "amount",
          "type": "uint256"
        }
      ],
      "payable": false,
      "stateMutability": "view",
      "type": "function",
      "signature": "0xeccb3a4f"
    },
    {
      "inputs": [],
      "payable": false,
      "stateMutability": "nonpayable",
      "type": "constructor",
      "signature": "constructor"
    },
    {
      "anonymous": false,
      "inputs": [
        {
          "indexed": true,
          "name": "_candidateId",
          "type": "uint256"
        }
      ],
      "name": "drawedEvent",
      "type": "event",
      "signature": "0x7cdc50c92c98ac68a461919a77359ed8db6c6163771984ea71d1c30a289bb41f"
    },
    {
      "constant": false,
      "inputs": [
        {
          "name": "drawValue",
          "type": "uint256"
        }
      ],
      "name": "draw",
      "outputs": [],
      "payable": true,
      "stateMutability": "payable",
      "type": "function",
      "signature": "0x3b304147"
    }
  ],
  "bytecode": "0x60806040523480156200001157600080fd5b50620000636040805190810160405280600781526020017f31206574686572000000000000000000000000000000000000000000000000008152506001620001fe640100000000026401000000009004565b620000b46040805190810160405280600781526020017f32206574686572000000000000000000000000000000000000000000000000008152506002620001fe640100000000026401000000009004565b620001056040805190810160405280600781526020017f33206574686572000000000000000000000000000000000000000000000000008152506003620001fe640100000000026401000000009004565b620001566040805190810160405280600781526020017f34206574686572000000000000000000000000000000000000000000000000008152506004620001fe640100000000026401000000009004565b620001a76040805190810160405280600781526020017f35206574686572000000000000000000000000000000000000000000000000008152506005620001fe640100000000026401000000009004565b620001f86040805190810160405280600881526020017f3135206574686572000000000000000000000000000000000000000000000000815250600f620001fe640100000000026401000000009004565b6200043a565b600460008154809291906001019190505550606060a060405190810160405280600454815260200184815260200160008152602001828152602001838152506001600060045481526020019081526020016000206000820151816000015560208201518160010190805190602001906200027a929190620002b6565b50604082015181600201556060820151816003019080519060200190620002a39291906200033d565b5060808201518160040155905050505050565b828054600181600116156101000203166002900490600052602060002090601f016020900481019282601f10620002f957805160ff19168380011785556200032a565b828001600101855582156200032a579182015b82811115620003295782518255916020019190600101906200030c565b5b509050620003399190620003cc565b5090565b828054828255906000526020600020908101928215620003b9579160200282015b82811115620003b85782518260006101000a81548173ffffffffffffffffffffffffffffffffffffffff021916908373ffffffffffffffffffffffffffffffffffffffff160217905550916020019190600101906200035e565b5b509050620003c89190620003f4565b5090565b620003f191905b80821115620003ed576000816000905550600101620003d3565b5090565b90565b6200043791905b808211156200043357600081816101000a81549073ffffffffffffffffffffffffffffffffffffffff021916905550600101620003fb565b5090565b90565b61076e806200044a6000396000f3fe608060405260043610610078576000357c0100000000000000000000000000000000000000000000000000000000900463ffffffff1680633b3041471461007d5780634ddca457146100ab5780635ec2311e146100fa5780637f23df0a146101495780639a287c2c14610174578063eccb3a4f146101dd575b600080fd5b6100a96004803603602081101561009357600080fd5b81019080803590602001909291905050506102a6565b005b3480156100b757600080fd5b506100e4600480360360208110156100ce57600080fd5b8101908080359060200190929190505050610477565b6040518082815260200191505060405180910390f35b34801561010657600080fd5b506101336004803603602081101561011d57600080fd5b810190808035906020019092919050505061048f565b6040518082815260200191505060405180910390f35b34801561015557600080fd5b5061015e6104a7565b6040518082815260200191505060405180910390f35b34801561018057600080fd5b506101c36004803603602081101561019757600080fd5b81019080803573ffffffffffffffffffffffffffffffffffffffff1690602001909291905050506104ad565b604051808215151515815260200191505060405180910390f35b3480156101e957600080fd5b506102166004803603602081101561020057600080fd5b81019080803590602001909291905050506104cd565b6040518085815260200180602001848152602001838152602001828103825285818151815260200191508051906020019080838360005b8381101561026857808201518184015260208101905061024d565b50505050905090810190601f1680156102955780820380516001836020036101000a031916815260200191505b509550505050505060405180910390f35b6000349050674563918244f400008202811480156102c45750600082115b1515610338576040517f08c379a000000000000000000000000000000000000000000000000000000000815260040180806020018281038252600e8152602001807f496e76616c696420616d6f756e7400000000000000000000000000000000000081525060200191505060405180910390fd5b60016000803373ffffffffffffffffffffffffffffffffffffffff1673ffffffffffffffffffffffffffffffffffffffff16815260200190815260200160002060006101000a81548160ff021916908315150217905550600061039a33610595565b9050600454818115156103a957fe5b066002600080815260200190815260200160002081905550600060026000808152602001908152602001600020546004540390508360016000838152602001908152602001600020600401540260036000808152602001908152602001600020819055503373ffffffffffffffffffffffffffffffffffffffff166108fc670de0b6b3a76400006003600080815260200190815260200160002054029081150290604051600060405180830381858888f19350505050158015610470573d6000803e3d6000fd5b5050505050565b60026020528060005260406000206000915090505481565b60036020528060005260406000206000915090505481565b60045481565b60006020528060005260406000206000915054906101000a900460ff1681565b6001602052806000526040600020600091509050806000015490806001018054600181600116156101000203166002900480601f01602080910402602001604051908101604052809291908181526020018280546001816001161561010002031660029004801561057f5780601f106105545761010080835404028352916020019161057f565b820191906000526020600020905b81548152906001019060200180831161056257829003601f168201915b5050505050908060020154908060040154905084565b600080600143034090506000601460200160ff1690506060816040519080825280601f01601f1916602001820160405280156105e05781602001600182028038833980820191505090505b509050600080905060008090505b602060ff1681101561067c57848160208110151561060857fe5b1a7f010000000000000000000000000000000000000000000000000000000000000002838380600101945081518110151561063f57fe5b9060200101907effffffffffffffffffffffffffffffffffffffffffffffffffffffffffffff1916908160001a90535080806001019150506105ee565b5060008090505b601481101561072a578060130360080260020a8773ffffffffffffffffffffffffffffffffffffffff168115156106b657fe5b047f01000000000000000000000000000000000000000000000000000000000000000283838060010194508151811015156106ed57fe5b9060200101907effffffffffffffffffffffffffffffffffffffffffffffffffffffffffffff1916908160001a9053508080600101915050610683565b5081805190602001206001900494505050505091905056fea165627a7a723058202591354cd88d15191ed72e38e9b2b3db8b7b741bf1c5eed482465e24bfd23a850029",
  "source": "pragma solidity ^0.5.0;\r\n\r\ncontract lottery{\r\n\r\n    event drawedEvent (\r\n        uint indexed _candidateId\r\n    );\r\n\r\n    struct prize{\r\n        uint id;\r\n        string name;\r\n        uint drawCount;\r\n        //uint probability; //概率的倒数\r\n        address[] winners;\r\n        uint amount;\r\n    }\r\n\r\n    struct random{\r\n        uint i;\r\n        uint drawCount;\r\n    }\r\n\r\n\r\n    mapping(address => bool) public drawers;\r\n    mapping(uint=>prize) public prizes;\r\n    //这里返还随机数i给js\r\n    mapping(uint=>uint) public randomval;\r\n    mapping(uint=>uint) public finalresult;\r\n\r\n    uint public prizeCount;\r\n    //uint public i;\r\n    \r\n    constructor () public{\r\n        addPrize(\"1 ether\",1);\r\n        addPrize(\"2 ether\",2);\r\n        addPrize(\"3 ether\",3);\r\n        addPrize(\"4 ether\",4);\r\n        addPrize(\"5 ether\",5);\r\n        addPrize(\"15 ether\",15);\r\n    }\r\n\r\n    function addPrize (string memory _name, uint _amount) private{\r\n        prizeCount++;\r\n        address[] memory winner;\r\n        prizes[prizeCount] = prize(prizeCount,_name,0,winner,_amount);\r\n    }\r\n\r\n    function draw (uint drawValue)public payable {\r\n        // require that they haven't drawed before\r\n        //require(!drawers[msg.sender],\"Sender has drawed before\");\r\n        uint value = msg.value;\r\n        require(value == drawValue*5 ether && drawValue > 0,\"Invalid amount\");\r\n        \r\n        // require a valid candidate\r\n        //require(_prizeId > 0 && _prizeId <= prizeCount,\"Invalid candidate\");\r\n\r\n        // record that drawr has drawd\r\n        drawers[msg.sender] = true;\r\n\r\n        // update candidate draw Count\r\n        //prizes[_prizeId].drawCount ++;\r\n\r\n        //emit drawedEvent(_prizeId);\r\n\r\n        //这里生成随机数i\r\n        uint i = getRandomNum(msg.sender);\r\n        randomval[0] = i%prizeCount;\r\n        uint prizeIndex = prizeCount-randomval[0];\r\n        finalresult[0] = prizes[prizeIndex].amount * drawValue;\r\n        msg.sender.transfer(finalresult[0]*1000000000000000000);\r\n\r\n        //这里把相对应的奖品发放给用户\r\n\r\n\r\n    }\r\n\r\n    function getRandomNum(address sender) internal view returns(uint) {\r\n        bytes32 blockhashBytes = blockhash(block.number - 1);\r\n        //bytes4 lotteryBytes = bytes4(lotteryCnt);\r\n        uint joinLength = blockhashBytes.length + 20;//+ lotteryBytes.length;\r\n        bytes memory hashJoin = new bytes(joinLength);\r\n        uint k = 0;\r\n        for (uint i = 0; i < blockhashBytes.length; i++) {\r\n            hashJoin[k++] = blockhashBytes[i];\r\n        }\r\n        // bytes 拼接 msg.sender 地址\r\n        for (uint i = 0; i < 20; i++) {\r\n            hashJoin[k++] = byte(uint8(uint(sender) / (2 ** (8 * (19 - i))))); \r\n        }\r\n        /*for (uint i = 0; i < lotteryBytes.length; i++) {\r\n            hashJoin[k++] = lotteryBytes[i];\r\n        }*/\r\n        return uint(keccak256(hashJoin));\r\n    }\r\n}",
  "sourcePath": "C:/Users/wilson/testing_1/contracts/lottery.sol",
  "compiler": {
    "name": "solc",
    "version": "0.5.0+commit.1d4f565a.Emscripten.clang"
  },
  "schemaVersion": "3.0.2",
  "updatedAt": "2019-03-03T10:48:24.040Z",
  "devdoc": {
    "methods": {}
  },
  "userdoc": {
    "methods": {}
  }
}